:100000000C9497000C94B4000C94B4000C94B400BD
:100010000C94B4000C94B4000C94B4000C94B40090
:100020000C94B4000C94B4000C94B4000C94B40080
:100030000C94B4000C94B4000C94B4000C94B40070
:100040000C94B4000C94B4000C94B4000C94B40060
:100050000C94B4000C94B4000C94B4000C94B40050
:100060000C94B4000C94E1000C94B4000C94B40013
:100070000C94B4000C94B4000C94B4000C94B40030
:100080000C94B4000C94B4000C94B4000C94B40020
:100090000C94B4000C94B4000C94B4000C94B40010
:1000A0000C94B4000C94B4000C94B4000763423672
:1000B000B79BD8A71A39685618AEBAAB558C1D3CF9
:1000C000B7CC5763BD6DEDFD753EF6177231BF00BD
:1000D0000000803F08000000BE922449123EABAAF7
:1000E000AA2ABECDCCCC4C3E00000080BEABAAAA52
:1000F000AA3E00000000BF000000803F000000009A
:1001000000084178D3BB4387D1133D190E3CC3BDD2
:100110004282AD2B3E68EC8276BED98FE1A93E4C7F
:1001200080EFFFBE01C4FF7F3F00000000001124EC
:100130001FBECFEFDAE0DEBFCDBF11E0A0E0B1E03F
:10014000E8EFFCE002C005900D92AA3CB107D9F798
:1001500022E0AAECB1E001C01D92A83EB207E1F78F
:100160000E94DA000C947A060C94000087E88093D1
:100170007A0087EC80937C000895EAE7F0E08081C4
:1001800080648083808186FDFDCF609178007091CE
:10019000790080E090E00E94D2032AE037ED43E24C
:1001A00050E40E94600420E030E040E85AE30E94FE
:1001B000600408950E944A010E943C010E942601A9
:1001C000FDCF1F920F920FB60F9211242F933F93E2
:1001D0004F935F936F937F938F939F93AF93BF934F
:1001E000EF93FF938091CA019091CB0188309105E4
:1001F000B4F42091CE00FC01EC52FE4F20839C0110
:100200002F5F3F4F3093CB012093CA012830310537
:1002100034F4FC01EC52FE4F80818F3231F40E94A5
:10022000DB011092CB011092CA01FF91EF91BF91B7
:10023000AF919F918F917F916F915F914F913F917E
:100240002F910F900FBE0F901F9018950E94BD0028
:100250000E941502BC0180E091E00E94A8026EE3BA
:1002600071E080E091E00E94A8020895BC0180E066
:1002700091E00E94A802089584E091E00E94360176
:1002800082E291E00E94360180E091E00E947C02CF
:10029000789408950E94090281E491E00E94360159
:1002A0000E94B60086E591E00E9436018AE691E060
:1002B0000E94360180E091E00E947C0208954F92F6
:1002C0005F926F927F928F929F92AF92BF92EF92C6
:1002D000FF920F931F93CF93DF93DC0111968C91C4
:1002E00011978E3289F0FD01329620E030E001C096
:1002F0009E01E901219691919E32D1F72A5F3F4FED
:10030000121613061CF043C0C0E0D0E07D0101E0EE
:1003100010E0412C512C32012197F701E00FF11F21
:1003200080818E3211F40F5F1F4FBE010D2E000C25
:10033000880B990B0E94D4039B01AC0160E070E034
:1003400080E291E40E94CD044B015C01F701E00FD3
:10035000F11F608170E060537109072E000C880B5B
:10036000990B0E94D403A50194010E9460049B0193
:10037000AC01C301B2010E94BE022B013C010F5F20
:100380001F4FCE0105968017910734F603C0412C0C
:10039000512C3201C301B201DF91CF911F910F9116
:1003A000FF90EF90BF90AF909F908F907F906F9055
:1003B0005F904F9008958091D4018332A9F08A32E2
:1003C000F9F48091D5018F32D9F08093CD018091DD
:1003D000D6018F32A9F08093CE018091D7018F3260
:1003E00079F08093CF01089584ED91E00E945F0140
:1003F0006093DC017093DD018093DE019093DF0157
:100400000895E8ECF0E0908195FFFDCF8093CE0059
:1004100008951092CD0080E18093CC0088E980930C
:10042000C90086E08093CA000895FF920F931F933E
:10043000CF93DF9320E030E048EC52E40E94600468
:100440000E949C03FB01683C7105ACF024E630E09F
:10045000C901880F991F220F331F220F331F220F4C
:10046000331F280F391FCF01B9010E945206623095
:10047000710574F702C024E630E01E161F067CF5F5
:10048000C0E0D0E00F2EFEE2FF2EF02D0AE010E0DB
:100490002A30310529F4DE01A052BE4FFC9221968C
:1004A000CF01B9010E94520680E3860FDE01A052FF
:1004B000BE4F8C9390E0C097829FA001839F500D08
:1004C000929F500D1124E41BF50B2196C901B80130
:1004D0000E9452069B011E161F06D4F202C0C0E005
:1004E000D0E0C052DE4F188280EE91E0DF91CF91D4
:1004F0001F910F91FF900895CF93DF93EC018B81B3
:100500009A81981769F08F5F8B83E881F981E80FF2
:10051000F11D80810E9401028B819A819813F3CF93
:10052000DF91CF910895FC0192819F5F83819813A1
:1005300006C0CF010E947C0281E090E00895A08176
:10054000B181A90FB11D6C93928380E090E0089572
:100550000F931F93CF93DF93EB016881662341F0E4
:100560008C012196C8010E94930269916111FACF12
:10057000DF91CF911F910F9108955058BB27AA2763
:100580000E94D5020C9426040E94180438F00E94A0
:100590001F0420F039F49F3F19F426F40C9415043D
:1005A0000EF4E095E7FB0C940F04E92F0E9437044A
:1005B00058F3BA17620773078407950720F079F498
:1005C000A6F50C9459040EF4E0950B2EBA2FA02D2D
:1005D0000B01B90190010C01CA01A0011124FF27F0
:1005E000591B99F0593F50F4503E68F11A16F040EB
:1005F000A22F232F342F4427585FF3CF46953795EA
:100600002795A795F0405395C9F77EF41F16BA0BAE
:10061000620B730B840BBAF09150A1F0FF0FBB1F5C
:10062000661F771F881FC2F70EC0BA0F621F731FA5
:10063000841F48F4879577956795B795F7959E3F02
:1006400008F0B0CF9395880F08F09927EE0F979593
:10065000879508950E943E030C9426040E941F046F
:1006600058F00E94180440F029F45F3F29F00C94E0
:100670000F0451110C945A040C9415040E94370471
:1006800068F39923B1F3552391F3951B550BBB27C1
:10069000AA2762177307840738F09F5F5F4F220F06
:1006A000331F441FAA1FA9F335D00E2E3AF0E0E8FD
:1006B00032D091505040E695001CCAF72BD0FE2F47
:1006C00029D0660F771F881FBB1F261737074807DB
:1006D000AB07B0E809F0BB0B802DBF01FF27935893
:1006E0005F4F3AF09E3F510578F00C940F040C9444
:1006F0005A045F3FE4F3983ED4F386957795679567
:10070000B795F7959F5FC9F7880F911D96958795C7
:1007100097F90895E1E0660F771F881FBB1F6217E6
:1007200073078407BA0720F0621B730B840BBA0BA4
:10073000EE1F88F7E09508950E94A3036894B11115
:100740000C945A0408950E943F0488F09F5798F033
:10075000B92F9927B751B0F0E1F0660F771F881FC6
:10076000991F1AF0BA95C9F714C0B13091F00E94E0
:100770005904B1E008950C945904672F782F882705
:10078000B85F39F0B93FCCF3869577956795B39507
:10079000D9F73EF490958095709561957F4F8F4F76
:1007A0009F4F0895E89409C097FB3EF4909580957B
:1007B000709561957F4F8F4F9F4F9923A9F0F92F27
:1007C00096E9BB279395F695879577956795B795A5
:1007D000F111F8CFFAF4BB0F11F460FF1BC06F5F8B
:1007E0007F4F8F4F9F4F16C0882311F096E911C09D
:1007F000772321F09EE8872F762F05C0662371F0BE
:1008000096E8862F70E060E02AF09A95660F771FD1
:10081000881FDAF7880F9695879597F9089597F9C5
:100820009F6780E870E060E008959FEF80EC089596
:1008300000240A94161617061806090608950024BF
:100840000A9412161306140605060895092E039439
:10085000000C11F4882352F0BB0F40F4BF2B11F4AD
:1008600060FF04C06F5F7F4F8F4F9F4F089557FD0C
:100870009058440F551F59F05F3F71F04795880F0E
:1008800097FB991F61F09F3F79F0879508951216A5
:1008900013061406551FF2CF4695F1DF08C0161651
:1008A00017061806991FF1CF869571056105089402
:1008B0000895E894BB2766277727CB0197F9089519
:1008C0000E9473040C9426040E94180438F00E94BD
:1008D0001F0420F0952311F00C940F040C941504C0
:1008E00011240C945A040E94370470F3959FC1F3AD
:1008F000950F50E0551F629FF001729FBB27F00DCE
:10090000B11D639FAA27F00DB11DAA1F649F662722
:10091000B00DA11D661F829F2227B00DA11D621F71
:10092000739FB00DA11D621F839FA00D611D221F2B
:10093000749F3327A00D611D231F849F600D211D0F
:10094000822F762F6A2F11249F5750409AF0F1F092
:1009500088234AF0EE0FFF1FBB1F661F771F881FFB
:1009600091505040A9F79E3F510580F00C940F0420
:100970000C945A045F3FE4F3983ED4F38695779540
:100980006795B795F795E7959F5FC1F7FE2B880FA1
:10099000911D9695879597F90895FA01EE0FFF1F1F
:1009A000309621053105A1F16115710561F480389A
:1009B000BFE39B0749F168949038810561F0803866
:1009C000BFEF9B0741F099234AF5FF3FE105310551
:1009D000210519F1E8940894E795D901AA2329F48F
:1009E000AB2FBE2FF85FD0F310C0FF5F70F4A69559
:1009F000E0F7F73950F019F0FF3A38F49F779F93FA
:100A00000DD00F9007FC9058089546F00C941504F3
:100A100060E070E080E89FE308954FE79F775F9381
:100A20004F933F932F930E94C8052F913F914F9171
:100A30005F910E9460040C94250529F416F00C9433
:100A40000F040C9459040C9415040E943F04A8F35D
:100A50009638A0F707F80F92E8942BE33AEA48EBB0
:100A60005FE70E9476040F920F920F924DB75EB728
:100A70000F920E941006ECEAF0E00E9457054F9199
:100A80005F91EF91FF91E595EE1FFF1F49F0FE5733
:100A9000E0684427EE0F441FFA95E1F74195550BA6
:100AA0000E948A050F9007FE0C947E050895DF933F
:100AB000CF931F930F93FF92EF92DF927B018C01F4
:100AC000689406C0DA2EEF010E947304FE01E894D8
:100AD000A5912591359145915591A6F3EF010E947D
:100AE000D502FE019701A801DA9469F7DF90EF9033
:100AF000FF900F911F91CF91DF9108959B01AC0161
:100B000060E070E080E89FE30C942A030C940F04EB
:100B10000C9444060E943F04D8F39923C9F3940F20
:100B2000511DA3F39150504094F059F0882332F0B6
:100B3000660F771F881F91505040C1F79E3F5105A7
:100B40002CF7880F911D9695879597F908955F3F2B
:100B5000ACF0983E9CF0BB27869577956795B79546
:100B600008F4B1609395C1F7BB0F58F711F460FF1B
:100B7000E8CF6F5F7F4F8F4F9F4FE3CF0C945A04A6
:100B800016F00C9444060C94150468940C940F040D
:100B90000E943F04A8F39923C1F3AEF3DF93CF93F0
:100BA0001F930F93FF92C92FDD2788232AF02197E7
:100BB000660F771F881FDAF720E030E040E85FEB30
:100BC0009FE3883920F0803E38F021968F770E948D
:100BD000BE02E4EDF0E004C00E94BE02E1E0F1E0FC
:100BE0000E9457058B01BE01EC01FB2E6F57710966
:100BF0007595771F880B990B0E94D40328E132E783
:100C000041E35FE30E947304AF2D9801AE01FF90B2
:100C10000F911F91CF91DF910E94D5020C94260471
:100C2000FA01DC01AA0FBB1F9B01AC01BF5728F4DE
:100C3000222733274427507820C0B75190F4AB2F98
:100C40000024469537952795011CA395D2F30020E3
:100C500071F0220F331F441FB395DAF30ED00C94BA
:100C6000BD0261307105A0E88A07B94630F49B01E6
:100C7000AC016627772788279078309621F020836B
:100C800031834283538308959F3F31F0915020F484
:100C9000879577956795B795880F911D9695879558
:100CA00097F9089597FB072E16F4009407D077FD67
:100CB00009D00E94660607FC05D03EF49095819508
:100CC0009F4F0895709561957F4F0895AA1BBB1B98
:100CD00051E107C0AA1FBB1FA617B70710F0A61B3C
:100CE000B70B881F991F5A95A9F780959095BC015D
:080CF000CD010895F894FFCF37
:100CF800E8010000446961676E6F7374696320647A
:100D0800657669636573206F6E205043422E2E0A04
:100D18000D00416C6C206465766963657320776F9C
:100D2800726B2070726F7065726C79210A0A0A0DF5
:100D3800005541525420696E697469616C697A651D
:100D48002E2E2E0A0D0041444320696E6974696194
:100D58006C697A652E2E2E0A0D004D6963726F6BD1
:100D68006F6E74726F6C6C657220696E69746961FC
:100D78006C697A656420636F72726563746C79213B
:100D88000A0D00636173655F7A0075737461776932
:100D98006F6E6F207A61732E63682E632F6E2F72C9
:100DA80020763D0075746177696F6E6F207A617384
:0A0DB8002E63682E762F6E2F720056
:00000001FF
