S01300006B6F645F6E615F617431362E737265630A
S11300000C942A000C9447000C9447000C9447006D
S11300100C9447000C9447000C9447000C94470040
S11300200C9447000C9447000C9447000C949C00DB
S11300300C9447000C9447000C9447000C94470020
S11300400C9447000C9447000C9447000C94470010
S11300500C94470011241FBECFE5D4E0DEBFCDBF12
S113006011E0A0E6B0E0E4EFF2E002C005900D92EA
S1130070A433B107D9F722E0A4E3B1E001C01D9293
S1130080A635B207E1F70E9494000C9478010C9411
S113009000000E946B01089508951092350110929A
S11300A0340110923E01E3E4F1E0A7E4B2E082E51A
S11300B091E011921D92E817F907D9F710923F01C8
S11300C010924001109241011092420108958091D2
S11300D03E018130E1F44091350150E04250510934
S11300E01416150694F480E090E020E0FC01E15C35
S11300F0FE4FDC01A95BBD4F11968C9184832F5F69
S1130100822F90E0841795078CF310923E0180E6CD
S113011090E00E945C0183E491E00E945C010E94F3
S113012073010E944D000895109235010E94490008
S11301300E944C007894FFCF1F920F920FB60F923B
S113014011242F933F934F935F936F937F938F93D8
S11301509F93AF93BF93EF93FF938CB1E0913501DD
S1130160F0E0E95BFD4F80838C3311F40E944D0075
S11301708091350181110DC080914702833209F4C9
S113018081C084E990E00E945C010E9473010E9496
S11301904D00809135019DEF980F9D3008F05DC0B2
S11301A0963008F03FC0282F30E0F901EA5BFD4F9C
S11301B090819F3219F5F901E95BFD4F90819B33E2
S11301C071F488EB90E00E945C010E94730110922C
S11301D0340181E080933E010E94670023C09A327B
S11301E009F04DC08CED90E00E945C010E94730107
S11301F081E08093340180933E0114C0883069F516
S113020090914E029F32C1F080914F028B3329F1BD
S11302108A3219F18AEE90E00E945C010E94730117
S11302200E944D0080913501282F30E0F901EA5BEE
S1130230FD4F90819F3289F4F901E95BFD4F908174
S11302409B3359F48950863040F487EF90E00E9444
S11302505C010E9473010E946700809135018F5FE9
S113026080933501803198F088E191E00E945C012F
S11302700E947301109235010E944D0008C088301D
S113028061F7BECF809135018F5F80933501FF9177
S1130290EF91BF91AF919F918F917F916F915F91FA
S11302A04F913F912F910F900FBE0F901F90189573
S11302B05D9BFECF8CB90895CF93DF93EC018881C9
S11302C0882331F021960E94580189918111FBCF36
S11302D0DF91CF91089510BC87E189B988E98AB983
S11302E086E880BD089580E391E00E945C01089552
S10702F0F894FFCFAC
S11302F4617267756D656E743A090055737461773C
S1130304696F6E6F206F6772616E69637A656E6977
S11303146520707261646F7765206E6120434800C4
S1130324412F74004E6965706F707261776E792025
S11303347A6E616B20706F637A61746B7520706F71
S11303446C6563656E6961004F62656272616E6FAC
S113035420706F6C6563656E696520737065636A8C
S1130364616C6E652F6F64637A797400706F6C6569
S113037463656E696520736574007A6C6120736BC0
S11303846C61646E696100706F6C6563656E696548
S113039420736574206F64656272616E6520706F8A
S11303A4707261776E696500426C616420646C7577
S11303B4676F73636920706F6C6563656E69610050
S10703C40A0D00001A
S9030000FC
