S0110000706C6174666F726D612E737265634D
S11300000C9497000C94B4000C94B4000C94B400B9
S11300100C94B4000C94B4000C94B4000C94B4008C
S11300200C94B4000C94B4000C94B4000C94B4007C
S11300300C94B4000C94B4000C94B4000C94B4006C
S11300400C94B4000C94B4000C94B4000C94B4005C
S11300500C94B4000C94B4000C94B4000C94B4004C
S11300600C94B4000C9440010C94B4000C94B400AF
S11300700C94B4000C94B4000C94B4000C94B4002C
S11300800C94B4000C94B4000C94B4000C94B4001C
S11300900C94B4000C94B4000C94B4000C94B4000C
S11300A00C94B4000C94B4000C94B400076342366E
S11300B0B79BD8A71A39685618AEBAAB558C1D3CF5
S11300C0B7CC5763BD6DEDFD753EF6177231BF00B9
S11300D00000803F08000000BE922449123EABAAF3
S11300E0AA2ABECDCCCC4C3E00000080BEABAAAA4E
S11300F0AA3E00000000BF000000803F0000000096
S113010000084178D3BB4387D1133D190E3CC3BDCE
S11301104282AD2B3E68EC8276BED98FE1A93E4C7B
S113012080EFFFBE01C4FF7F3F00000000001124E8
S11301301FBECFEFDAE0DEBFCDBF13E0A0E0B1E039
S1130140E0E9F1E102C005900D92AC37B107D9F7AF
S113015024E0ACE7B3E001C01D92AD3CB207E1F787
S11301600E9434010C94C6080C94000087E8809324
S11301707A0080E480937C00089580917A00806402
S113018080937A0080917A0086FDFCCF609178009C
S11301908091790070E0782B072E000C880B990B66
S11301A00E94F70520E030E040E85AE30E94AC06E4
S11301B020E030E040EA50E40E94AC060895ECEB05
S11301C0F0E0808180648083808180688083808186
S11301D0846080838081816080831092B90088E18B
S11301E08093B800089594EA9093BC009091BC0069
S11301F097FFFCCF9091B900987F983021F090310F
S113020011F081E008958093BB0084E88093BC00E2
S11302108091BC0087FFFCCF8091B900887F883132
S113022011F0803471F780E00895CF93DF93C1E03B
S1130230D0E08C2F0E94F3008091B900883169F4DA
S113024084E692E00E94FA0363E070E0CE010E942B
S1130250A70481EE92E00E94FA032196C038D105EA
S113026041F7DF91CF910895559A5D980E94CE0190
S11302700E94AE010E94BC0178940E94AB01FDCFA4
S11302801F920F920FB60F9211242F933F934F9307
S11302905F936F937F938F939F93AF93BF93EF93EA
S11302A0FF935D9A80917C0390917D038830910542
S11302B05CF42091CE00FC01E855FC4F20830196AC
S11302C090937D0380937C0380917C0390917D03C4
S11302D08830910534F4FC01E955FC4F80818F325C
S11302E031F40E94090310927D0310927C03FF9164
S11302F0EF91BF91AF919F918F917F916F915F919A
S11303004F913F912F910F900FBE0F901F90189512
S113031087B1806C87B988B1806C88B908958111E0
S113032002C0479A03C0813039F4479883EC99E0BE
S11303300197F1F700C00000469889EF90E001971B
S1130340F1F700C00000469A89EF90E00197F1F7B9
S113035000C00000089583E00C94D9030C94880134
S11303601092D7001092D8001092E2000895BC01B8
S113037080E091E00C9495048BE892E00E94B70130
S113038089EA92E00E94FA030E94150183EC92E04C
S11303900E94B70180E091E00C946C040E94B001CB
S11303A00E94060484EE92E00E94B70189EF92E075
S11303B00E94B7010E94B6008DE093E00E94B7014D
S11303C00E94DF000E94880181E293E00E94B7014D
S11303D080E091E00C946C044F925F926F927F9254
S11303E08F929F92AF92BF92EF92FF920F931F93BF
S11303F0CF93DF937C01FC01319600E010E0819102
S11304008E3219F00F5F1F4FFACFC1E0D0E0412CBC
S1130410512C3201C80105968C179D07ACF101508F
S11304201109F701EC0FFD1F80818E3209F421962A
S1130430B801012E000C880B990B0E94F7059B0153
S1130440AC0160E070E080E291E40E9419074B0186
S11304505C01F701EC0FFD1F608170E060537109CE
S1130460072E000C880B990B0E94F705A501940137
S11304700E94AC069B01AC01C301B2010E94DC04E2
S11304802B013C012196C6CFC301B201DF91CF916C
S11304901F910F91FF90EF90BF90AF909F908F901E
S11304A07F906F905F904F9008958091B403813353
S11304B009F0AEC08091B5038A3709F0A9C08091D4
S11304C0B603833609F051C08091B7038233D1F06B
S11304D018F4813331F00895833329F18433A1F181
S11304E008958091B0039091B103A091B203B091AB
S11304F0B3038093800390938103A0938203B0930A
S1130500830308958091B0039091B103A091B20345
S1130510B091B3038093A0039093A103A093A2038B
S1130520B093A30308958091B0039091B103A09177
S1130530B203B091B3038093900390939103A0937B
S11305409203B093930308958091B0039091B10303
S1130550A091B203B091B30380939803909399034D
S1130560A0939A03B0939B030895863709F050C073
S11305708091B7038233D1F018F4813331F00895B8
S1130580833329F18433A1F108958091B0039091CC
S1130590B103A091B203B091B30380938403909309
S11305A08503A0938603B093870308958091B003D5
S11305B09091B103A091B203B091B3038093A403CB
S11305C09093A503A093A603B093A70308958091E5
S11305D0B0039091B103A091B203B091B30380939F
S11305E0940390939503A0939603B093970308956F
S11305F08091B0039091B103A091B203B091B30381
S113060080939C0390939D03A0939E03B0939F03B8
S113061008958091A803833279F08A3219F581E034
S113062080937F03A9EAB3E0E4EBF3E08D918F328A
S1130630C9F081931082FACF81E080937E0388EA27
S113064093E00E94EC016093B0037093B103809334
S1130650B2039093B303E8EAF3E08081882331F096
S11306601192FBCF80917E03813051F480917F03FE
S1130670813031F410927E0310927F030C94550262
S11306800895CF92DF92EF92FF928230C9F058F42E
S1130690813039F5C0908003D0908103E0908203CB
S11306A0F09083031EC08330A1F08430D1F4C09055
S11306B09803D0909903E0909A03F0909B0311C0A3
S11306C0C090A003D090A103E090A203F090A303F4
S11306D008C0C0909003D0909103E0909203F090F2
S11306E0930380E090E00E94BD0026EF38E24CE8DE
S11306F050E40E94AC069B01AC01C701B6010E9404
S1130700480587FF32C080E090E00E94BD00A70149
S113071096010E94DB0426EF38E24CE850E40E9484
S1130720AC062AE037ED43E25CE30E94A706181604
S113073074F480E090E00E94BD000E94640481EEA5
S113074092E00E94FA0380E00E948F01DCCF80E0F7
S113075090E00E94BD000E9464048AE493E0FF904C
S1130760EF90DF90CF900C94FA0380E090E00E9429
S1130770BD00A70196010E94DB0426EF38E24CE895
S113078050E40E94AC062AE037ED43E25CE30E94A9
S1130790A7061816E4F680E090E00E94BD000E94CF
S11307A0640481EE92E00E94FA0381E00E948F01CA
S11307B0DCCFCF93C82F8DE493E00E94FA038C2FF3
S11307C00E94410381E090E00E94BD0025E83BEED9
S11307D041E850E40E94AC060E94640482E593E080
S11307E0CF910C94FA039091C80095FFFCCF8093AD
S11307F0CE000895CF93DF93EC018991882319F0FB
S11308000E94F303FACFDF91CF9108951092CD00A7
S113081089E18093CC0088E98093C90086E08093C5
S1130820CA0008950F931F93CF93DF9320E030E025
S113083048EC52E40E94AC060E94BF05FB0124E68A
S113084030E04AE0CF01B9010E949E086230710590
S11308503CF0C901489F9001499F300D1124F2CF0B
S1130860C0E0D0E04EE20AE010E0DE01A454BC4F48
S11308701E161F060CF52A30310511F44C932196EF
S1130880CF01B9010E949E0880E3860FDE01A454C3
S1130890BC4F8C9390E0C097829FB001839F700DF2
S11308A0929F700D1124E61BF70B2196C901B80124
S11308B00E949E089B01D9CF1C928CEB93E0DF91A0
S11308C0CF911F910F9108950E9412040E94FA0380
S11308D081EE92E00C94FA03CF93DF93EC018B81C9
S11308E09A81981751F08F5F8B83E881F981E80F23
S11308F0F11D80810E94F303F2CFDF91CF9108951F
S1130900FC0182818F5F9381891306C0CF010E940D
S11309106C0481E090E00895A081B181A80FB11D1D
S11309206C93828380E090E008950F931F93CF939C
S1130930DF938C01EB016991662321F0C8010E94C9
S11309408004F9CFDF91CF911F910F9108950F93F8
S11309501F93CF93DF93EC018B01853691051CF433
S1130960633071054CF0CE0164E670E00E949E088D
S113097080E3860F0E94F303CB30D1051CF40230D0
S113098011056CF0CE0164E670E00E949E086AE0F6
S113099070E00E949E0880E3860F0E94F303CE015C
S11309A06AE070E00E949E08805DDF91CF911F9104
S11309B00F910C94F3035058BB27AA270E94F30409
S11309C00C946D060E945F0638F00E94660620F0C3
S11309D039F49F3F19F426F40C945C060EF4E09568
S11309E0E7FB0C945606E92F0E947E0658F3BA17CB
S11309F0620773078407950720F079F4A6F50C9431
S1130A00A0060EF4E0950B2EBA2FA02D0B01B90110
S1130A1090010C01CA01A0011124FF27591B99F070
S1130A20593F50F4503E68F11A16F040A22F232F7C
S1130A30342F4427585FF3CF469537952795A795CC
S1130A40F0405395C9F77EF41F16BA0B620B730B73
S1130A50840BBAF09150A1F0FF0FBB1F661F771FE4
S1130A60881FC2F70EC0BA0F621F731F841F48F499
S1130A70879577956795B795F7959E3F08F0B0CF22
S1130A809395880F08F09927EE0F97958795089509
S1130A900E94320608F481E008950E9461050C94D6
S1130AA06D060E94660658F00E945F0640F029F425
S1130AB05F3F29F00C94560651110C94A1060C9436
S1130AC05C060E947E0668F39923B1F3552391F3E3
S1130AD0951B550BBB27AA2762177307840738F0A9
S1130AE09F5F5F4F220F331F441FAA1FA9F335D006
S1130AF00E2E3AF0E0E832D091505040E695001CBA
S1130B00CAF72BD0FE2F29D0660F771F881FBB1F73
S1130B10261737074807AB07B0E809F0BB0B802D51
S1130B20BF01FF2793585F4F3AF09E3F510578F07D
S1130B300C9456060C94A1065F3FE4F3983ED4F35C
S1130B40869577956795B795F7959F5FC9F7880F51
S1130B50911D9695879597F90895E1E0660F771FA3
S1130B60881FBB1F621773078407BA0720F0621B34
S1130B70730B840BBA0BEE1F88F7E09508950E945F
S1130B80C6056894B1110C94A10608950E948606C6
S1130B9088F09F5798F0B92F9927B751B0F0E1F03A
S1130BA0660F771F881F991F1AF0BA95C9F714C0EA
S1130BB0B13091F00E94A006B1E008950C94A00613
S1130BC0672F782F8827B85F39F0B93FCCF3869523
S1130BD077956795B395D9F73EF490958095709580
S1130BE061957F4F8F4F9F4F0895E89409C097FBFD
S1130BF03EF490958095709561957F4F8F4F9F4FF0
S1130C009923A9F0F92F96E9BB279395F695879533
S1130C1077956795B795F111F8CFFAF4BB0F11F4F6
S1130C2060FF1BC06F5F7F4F8F4F9F4F16C088239D
S1130C3011F096E911C0772321F09EE8872F762FD3
S1130C4005C0662371F096E8862F70E060E02AF014
S1130C509A95660F771F881FDAF7880F9695879500
S1130C6097F90895990F0008550FAA0BE0E8FEEFD5
S1130C7016161706E807F907C0F012161306E4075C
S1130C80F50798F0621B730B840B950B39F40A2655
S1130C9061F0232B242B252B21F408950A2609F433
S1130CA0A140A6958FEF811D811D089597F99F6737
S1130CB080E870E060E008959FEF80EC08950024E0
S1130CC00A941616170618060906089500240A94AD
S1130CD012161306140605060895092E0394000C33
S1130CE011F4882352F0BB0F40F4BF2B11F460FFC2
S1130CF004C06F5F7F4F8F4F9F4F089557FD9058EB
S1130D00440F551F59F05F3F71F04795880F97FBCB
S1130D10991F61F09F3F79F0879508951216130685
S1130D201406551FF2CF4695F1DF08C016161706B4
S1130D301806991FF1CF86957105610508940895E9
S1130D40E894BB2766277727CB0197F908950E947B
S1130D50320608F48FEF08950E94BF060C946D06C6
S1130D600E945F0638F00E94660620F0952311F079
S1130D700C9456060C945C0611240C94A1060E9453
S1130D807E0670F3959FC1F3950F50E0551F629F47
S1130D90F001729FBB27F00DB11D639FAA27F00DD0
S1130DA0B11DAA1F649F6627B00DA11D661F829FF7
S1130DB02227B00DA11D621F739FB00DA11D621FDC
S1130DC0839FA00D611D221F749F3327A00D611DF9
S1130DD0231F849F600D211D822F762F6A2F1124DB
S1130DE09F5750409AF0F1F088234AF0EE0FFF1F0E
S1130DF0BB1F661F771F881F91505040A9F79E3F65
S1130E00510580F00C9456060C94A1065F3FE4F360
S1130E10983ED4F3869577956795B795F795E795BA
S1130E209F5FC1F7FE2B880F911D9695879597F9C3
S1130E300895FA01EE0FFF1F309621053105A1F147
S1130E406115710561F48038BFE39B0749F168942B
S1130E509038810561F08038BFEF9B0741F09923FA
S1130E604AF5FF3FE1053105210519F1E89408949D
S1130E70E795D901AA2329F4AB2FBE2FF85FD0F34D
S1130E8010C0FF5F70F4A695E0F7F73950F019F041
S1130E90FF3A38F49F779F930DD00F9007FC90583A
S1130EA0089546F00C945C0660E070E080E89FE3EF
S1130EB008954FE79F775F934F933F932F930E943B
S1130EC014082F913F914F915F910E94AC060C94AE
S1130ED0710729F416F00C9456060C94A0060C9491
S1130EE05C060E948606A8F39638A0F707F80F92CE
S1130EF0E8942BE33AEA48EB5FE70E94C2060F92BC
S1130F000F920F924DB75EB70F920E945C08ECEA05
S1130F10F0E00E94A3074F915F91EF91FF91E59557
S1130F20EE1FFF1F49F0FE57E0684427EE0F441FF1
S1130F30FA95E1F74195550B0E94D6070F9007FEED
S1130F400C94CA070895DF93CF931F930F93FF92D6
S1130F50EF92DF927B018C01689406C0DA2EEF01D8
S1130F600E94BF06FE01E894A59125913591459113
S1130F705591A6F3EF010E94F304FE019701A80125
S1130F80DA9469F7DF90EF90FF900F911F91CF9162
S1130F90DF9108959B01AC0160E070E080E89FE37D
S1130FA00C944D050C9456060C9490080E948606E9
S1130FB0D8F39923C9F3940F511DA3F391505040D2
S1130FC094F059F0882332F0660F771F881F9150F0
S1130FD05040C1F79E3F51052CF7880F911D9695FF
S1130FE0879597F908955F3FACF0983E9CF0BB2736
S1130FF0869577956795B79508F4B1609395C1F791
S1131000BB0F58F711F460FFE8CF6F5F7F4F8F4F2E
S11310109F4FE3CF0C94A10616F00C9490080C9407
S11310205C0668940C9456060E948606A8F39923DD
S1131030C1F3AEF3DF93CF931F930F93FF92C92FA6
S1131040DD2788232AF02197660F771F881FDAF798
S113105020E030E040E85FEB9FE3883920F0803EF9
S113106038F021968F770E94DC04E4EDF0E004C0B0
S11310700E94DC04E1E0F1E00E94A3078B01BE01C1
S1131080EC01FB2E6F5771097595771F880B990B2F
S11310900E94F70528E132E741E35FE30E94BF06BF
S11310A0AF2D9801AE01FF900F911F91CF91DF9169
S11310B00E94F3040C946D06FA01DC01AA0FBB1F15
S11310C09B01AC01BF5728F42227332744275078CB
S11310D020C0B75190F4AB2F00244695379527953F
S11310E0011CA395D2F3002071F0220F331F441F7B
S11310F0B395DAF30ED00C94DB0461307105A0E8EB
S11311008A07B94630F49B01AC0166277727882704
S11311109078309621F0208331834283538308955D
S11311209F3F31F0915020F4879577956795B79557
S1131130880F911D9695879597F9089597FB072E2B
S113114016F4009407D077FD09D00E94B20807FC7A
S113115005D03EF4909581959F4F089570956195C3
S11311607F4F0895AA1BBB1B51E107C0AA1FBB1FD9
S1131170A617B70710F0A61BB70B881F991F5A951F
S1131180A9F780959095BC01CD010895F894FFCFFF
S1131190CD0300004120535441525420636F6E64C8
S11311A06974696F6E20686173206265656E2020C2
S11311B07472616E736D69747465640A0D00412004
S11311C072657065617465642053544152542063A0
S11311D06F6E646974696F6E686173206265656EB1
S11311E0207472616E736D69747465640A0D0053C2
S11311F04C412B5720686173206265656E207472C0
S1131200616E736D69747465642041434B20686139
S113121073206265656E2072656365697665640A2C
S11312200D00534C412B5720686173206265656E35
S1131230207472616E736D6974746564204E4F54CA
S11312402041434B20686173206265656E2072659E
S11312506365697665640A0D00446174612062798E
S1131260746520686173206265656E207472616EB6
S1131270736D69747465643B41434B2068617320EA
S11312806265656E2072656365697665640A0D0042
S113129044617461206279746520686173206265B9
S11312A0656E207472616E736D6974746564204E2A
S11312B04F542041434B20686173206265656E2062
S11312C072656365697665640A0D004172626974CA
S11312D0726174696F6E206C6F737420696E205331
S11312E04C412B57206F726461746120627974657C
S11312F0730A0D000A0D4F646E616C657A696F6E36
S11313006F2075727A61647A656E696520706F64A6
S1131310204164726573656D203D00446961676EA8
S11313206F737469632064657669636573206F6E97
S1131330205043422E2E0A0D000A0D74657374204A
S11313406D616769737472616C69204932432E2E32
S11313502E2E000A0D416C6C2064657669636573FA
S113136020776F726B2070726F7065726C79210ACE
S11313700A0A0D005541525420696E697469616C02
S1131380697A652E2E2E0A0D0050574D20696E691C
S11313907469616C697A652E2E2E0A0D00414443EE
S11313A020696E697469616C697A652E2E2E0A0D46
S11313B0004D6963726F6B6F6E74726F6C6C6572E3
S11313C020696E697469616C697A656420636F72FF
S11313D0726563746C79210A0D0041090043483336
S11313E03A00560A0D003D0900554449454E005542
S11313F05342494E5400555342434F4E00555342B5
S10F140053544100554857434F4E000020
S9030000FC
