S01300006B6F645F6E615F617431362E737265630A
S11300000C9467000C9484000C9484000C94840079
S11300100C9484000C9484000C9484000C9484004C
S11300200C9484000C940C020C9484000C943802FC
S11300300C9484000C9484000C9484000C9484002C
S11300400C9484000C9484000C9484000C9484001C
S11300500C9484006202840284026A026A026A02C4
S11300606A026A026A026A027802780278027802F4
S11300707802880205A84CCDB2D44EB93836A9020C
S11300800C50B9918688083CA6AAAA2ABE00000092
S1130090803F4E414E494E495459494E46CDCCCCF1
S11300A03D0AD7233C17B7D13877CC2B329595E648
S11300B0241FB14F0A000020410000C84200401C28
S11300C04620BCBE4CCA1B0E5AAEC59D74001124FA
S11300D01FBECFE5D4E0DEBFCDBF11E0A0E6B0E0A7
S11300E0ECEAF2E102C005900D92A232B107D9F711
S11300F021E0A2E2B1E001C01D92AA35B207E1F706
S11301000E9432020C9454090C9400000E94EF03E4
S11301100C94A601E2E3F1E0138E128E148E158E78
S11301200C9420038BEF90E00C94E30310924F01A6
S113013010924D0110924C01E6E3F1E01682119207
S113014081E0E634F807D1F710924E0110923201A3
S113015010923301109234011092350110924B0128
S113016008950F931F93CF9380913701873609F435
S11301707CC08A3709F087C080913601813321F42D
S113018086E391E00E94FB0380913601803309F0FD
S11301907AC08091390190E00E941D03C82F082F76
S11301A010E082E2C89FF0011124ED58FF4F9489BA
S11301B080913801992309F447C0843761F4809110
S11301C03A01813311F40E94920080913A01803304
S11301D011F40E949200809138018336C9F4409151
S11301E0320150913301609134017091350182E202
S11301F0809FF001819FF00D1124ED58FF4F468B35
S1130200578B608F718F8C2F0E94AD030E949200D8
S1130210809138018637B9F540913201509133010C
S1130220609134017091350182E2809FF001819FD9
S1130230F00D1124ED58FF4F428F538F648F758F4B
S11302408C2F0E945F030CC08536E9F480913A013B
S1130250813311F40E94920080913A01803399F421
S1130260CF911F910F910C949200809136018033AD
S113027051F480913801853631F481E0CF911F919A
S11302800F910C940002CF911F910F910895CF9379
S1130290DF9300D000D000D0CDB7DEB780914C0101
S11302A090E0882399F0E92FF0E0EE5CFE4F23857F
S11302B02F3221F4148210924C0108C084858B33B0
S11302C0C9F38A32B9F324839F5FEDCF80914D0146
S11302D0882379F1DE01119686E0FD0111928A9559
S11302E0E9F79E5F80E0E92FF0E0EE5CFE4F2385A6
S11302F02F3291F08F5F282F30E0AD01420F531F52
S11303006485FA016083E2E0F0E0EC0FFD1FE20F88
S1130310F31F10829F5FE7CFCD010E941B03609300
S1130320320170933301809334019093350110921C
S11303304D010E94B1000E94960026960FB6F894D3
S1130340DEBF0FBECDBFDF91CF91089583B7886420
S113035083BF83B7806283BF8FEF8CBF12BE81E0FF
S113036089BF0895CF92DF92EF92FF92CF93DF93EC
S1130370C0917100D0917200209719F483B78D7FDA
S113038083BF6091600070916100072E000C880BA0
S1130390990B0E9482059B01AC0163EC75EF88EC1C
S11303A090E40E94D8046B017C01BE010D2E000C68
S11303B0880B990B0E9482059B01AC01C701B60111
S11303C00E9413060E94800620916200309163000F
S11303D040916400509165000E94130620E030E0D3
S11303E040EA50E40E946C042197D0937200C093B9
S11303F07100DF91CF91FF90EF90DF90CF9008953F
S11304008093660024E630E03093720020937100FC
S113041083B7826083BF08951F920F920FB60F9225
S113042011242F933F934F935F936F937F938F93F5
S11304309F93AF93BF93EF93FF930E94B2010E94E7
S1130440F703FF91EF91BF91AF919F918F917F91AE
S11304506F915F914F913F912F910F900FBE0F902D
S11304601F9018950E9486000E948A007894FFCFFE
S11304701F920F920FB60F9211242F933F934F9315
S11304805F936F937F938F939F93AF93BF93EF93F8
S1130490FF9380914B01A82FB0E09CB1AE5CBE4F9E
S11304A01A969C931A979C3319F40E9496005DC087
S11304B0482F50E04031510570F5FA01E65DFF4FD9
S11304C00C94480781E080934B0180913C01833276
S11304D0F9F421C020914C0121110AC0893041F462
S11304E0209144012F3221F02B3311F02A3281F470
S11304F019962C912F3241F49A3221F491E0909381
S11305004C0102C09B33D9F08F5F80934B0103C031
S113051081E080934E0180914E0181110E949600EA
S113052080914C01882309F180914F018823E9F0DF
S113053080914E01811119C00E94470116C090910B
S11305404C01911108C090914D01911104C081E0BA
S113055080934C0107C090914F019111D5CF81E058
S113056080934D0180934F01D6CFFF91EF91BF91BE
S1130570AF919F918F917F916F915F914F913F9137
S11305802F910F900FBE0F901F9018950F931F93EC
S1130590CF93DF9320E030E048EC52E40E9413064E
S11305A00E944A05FB0124E630E04AE0CF01B9018C
S11305B00E943407623071053CF0C901489F9001E4
S11305C0499F300D1124F2CFC0E0D0E04EE20AE0A2
S11305D010E0DE01AE5DBE4F1E161F060CF52A307C
S11305E0310511F44C932196CF01B9010E943407CF
S11305F080E3860FDE01AE5DBE4F8C9390E0C09722
S1130600829FB001839F700D929F700D1124E61B91
S1130610F70B2196C901B8010E9434079B01D9CF79
S11306208BE38C9311961C9282E291E0DF91CF913F
S11306301F910F9108950C9462070E946607089514
S113064084B3806C84BB85B3806C85BB08956111D1
S113065002C0AF9A03C0613039F4AF9883EC99E0DB
S11306600197F1F700C00000AE9889EF90E0019780
S1130670F1F700C00000AE9A89EF90E00197F1F71E
S113068000C000000895CF93DF93C82FD0E0CE01BF
S1130690880F991F01970E94BC03219722E22C9F87
S11306A0F0012D9FF00D1124ED58FF4F2485358561
S11306B0468557850E941306DF91CF9108951F93B5
S11306C0CF93DF93182F90E0019722E2289FE00157
S11306D0299FD00D1124CD58DF4F4A8F5B8F6C8F2B
S11306E07D8F812F0E9443032A8D3B8D4C8D5D8D20
S11306F00E940E066A961816B4F4812F0E944303D2
S1130700288139814A815B810E946B042DEC3CEC89
S11307104CEC5DE30E940E061816DCF460E0812FB9
S11307200E942703EACF812F0E9443032881398145
S11307304A815B810E946B042DEC3CEC4CEC5DE344
S11307400E940E0618162CF461E0812F0E942703E4
S1130750EACFDF91CF911F91089590E0019722E2B3
S1130760289FF001299FF00D1124ED58FF4F468B6F
S1130770578B608F718F0895369A3699FECF21E09A
S113078030E0A90102C0440F551F8A95E2F747B92A
S113079064B185B170E0782B072E000C880B990B9F
S11307A00E94820520E030E040E85AE30E941306EC
S11307B020E030E040EA50E40E94130608955D9B77
S11307C0FECF8CB90895CF93DF93EC0189918823F0
S11307D019F00E94DF03FACFDF91CF91089510BC86
S11307E087E189B988E98AB986E880BD08950E94BD
S11307F0C6020C94E303CF92DF92EF92FF920F9321
S11308001F93CF93DF93EC018A8190E00E941D0334
S1130810182F82E091E00E94E3038A810E94DF03A3
S11308208BE30E94DF03239622E2129FC00111246E
S11308308D589F4F7C01EAE1EE0EF11C8C010C5E99
S11308401F4F6E0188818823D1F1863759F4F7014F
S113085060817181828193810E94F70386E091E037
S11308600E94E3038881833659F4F7016081718122
S1130870828193810E94F70389E091E00E94E3035F
S11308808881803759F4F701608171818281938175
S11308900E94F7038DE091E00E94E3032196F601A4
S11308A080818D3671F6F8018081882319F080E10A
S11308B091E002C088E191E00E94E303C2CF8FEF90
S11308C090E0DF91CF911F910F91FF90EF90DF9017
S11308D0CF900C94E3035058BB27AA270E948304AB
S11308E00C94D4050E94C60538F00E94CD0520F072
S11308F039F49F3F19F426F40C94C3050EF4E095E3
S1130900E7FB0C94BD05E92F0E94E50558F3BA17DF
S1130910620773078407950720F079F4A6F50C9411
S113092007060EF4E0950B2EBA2FA02D0B01B9018A
S113093090010C01CA01A0011124FF27591B99F051
S1130940593F50F4503E68F11A16F040A22F232F5D
S1130950342F4427585FF3CF469537952795A795AD
S1130960F0405395C9F77EF41F16BA0B620B730B54
S1130970840BBAF09150A1F0FF0FBB1F661F771FC5
S1130980881FC2F70EC0BA0F621F731F841F48F47A
S1130990879577956795B795F7959E3F08F0B0CF03
S11309A09395880F08F09927EE0F979587950895EA
S11309B00E94EC040C94D4050E94CD0558F00E94CA
S11309C0C60540F029F45F3F29F00C94BD05511190
S11309D00C9408060C94C3050E94E50568F399235A
S11309E0B1F3552391F3951B550BBB27AA27621727
S11309F07307840738F09F5F5F4F220F331F441F34
S1130A00AA1FA9F335D00E2E3AF0E0E832D0915067
S1130A105040E695001CCAF72BD0FE2F29D0660F54
S1130A20771F881FBB1F261737074807AB07B0E897
S1130A3009F0BB0B802DBF01FF2793585F4F3AF09D
S1130A409E3F510578F00C94BD050C9408065F3F59
S1130A50E4F3983ED4F3869577956795B795F79523
S1130A609F5FC9F7880F911D9695879597F908950B
S1130A70E1E0660F771F881FBB1F621773078407A7
S1130A80BA0720F0621B730B840BBA0BEE1F88F7B6
S1130A90E09508950E9451056894B1110C940806DC
S1130AA008950E94ED0588F09F5798F0B92F992773
S1130AB0B751B0F0E1F0660F771F881F991F1AF045
S1130AC0BA95C9F714C0B13091F00E940706B1E09D
S1130AD008950C940706672F782F8827B85F39F09C
S1130AE0B93FCCF3869577956795B395D9F73EF4DE
S1130AF090958095709561957F4F8F4F9F4F089586
S1130B00E89409C097FB3EF49095809570956195A3
S1130B107F4F8F4F9F4F9923A9F0F92F96E9BB2759
S1130B209395F695879577956795B795F111F8CFD5
S1130B30FAF4BB0F11F460FF1BC06F5F7F4F8F4F40
S1130B409F4F16C0882311F096E911C0772321F036
S1130B509EE8872F762F05C0662371F096E8862FCE
S1130B6070E060E02AF09A95660F771F881FDAF725
S1130B70880F9695879597F9089597F99F6780E868
S1130B8070E060E008959FEF80EC089500240A94DB
S1130B901616170618060906089500240A94121654
S1130BA01306140605060895092E0394000C11F487
S1130BB0882352F0BB0F40F4BF2B11F460FF04C034
S1130BC06F5F7F4F8F4F9F4F089557FD9058440F8D
S1130BD0551F59F05F3F71F04795880F97FB991F98
S1130BE061F09F3F79F08795089512161306140655
S1130BF0551FF2CF4695F1DF08C0161617061806E2
S1130C00991FF1CF86957105610508940895E894BC
S1130C10BB2766277727CB0197F908950E9488069A
S1130C2008F48FEF08950E9426060C94D4050E94C0
S1130C30C60538F00E94CD0520F0952311F00C94E0
S1130C40BD050C94C30511240C9408060E94E50507
S1130C5070F3959FC1F3950F50E0551F629FF0010B
S1130C60729FBB27F00DB11D639FAA27F00DB11D24
S1130C70AA1F649F6627B00DA11D661F829F2227AD
S1130C80B00DA11D621F739FB00DA11D621F839F34
S1130C90A00D611D221F749F3327A00D611D231F0A
S1130CA0849F600D211D822F762F6A2F11249F5758
S1130CB050409AF0F1F088234AF0EE0FFF1FBB1F5B
S1130CC0661F771F881F91505040A9F79E3F51051A
S1130CD080F00C94BD050C9408065F3FE4F3983E45
S1130CE0D4F3869577956795B795F795E7959F5FC4
S1130CF0C1F7FE2B880F911D9695879597F9089556
S1130D009F930E94AE060F9007FCEE5F0C94D706EB
S1130D10990F0008550FAA0BE0E8FEEF1616170608
S1130D20E807F907C0F012161306E407F50798F070
S1130D30621B730B840B950B39F40A2661F0232B89
S1130D40242B252B21F408950A2609F4A140A69505
S1130D508FEF811D811D08950C94C3050E94ED053C
S1130D60D8F3E894E0E0BB279F57F0F02AED3FE08A
S1130D7049EC06C0EE0FBB0F661F771F881F28F0D3
S1130D80B23A62077307840728F0B25A620B730BF6
S1130D90840BE3959A9572F7803830F49A95BB0FDB
S1130DA0661F771F881FD2F790480C94ED06EF93C7
S1130DB0E0FF07C0A2EA2AED3FE049EC5FEB0E94A6
S1130DC083040E94D4050F90039401FC9058E4E737
S1130DD0F0E00C94F9069F3F31F0915020F4879590
S1130DE077956795B795880F911D9695879597F98F
S1130DF008959F938F937F936F93FF93EF939B013A
S1130E00AC010E941306EF91FF910E940D072F91F0
S1130E103F914F915F910C941306DF93CF931F93EF
S1130E200F93FF92EF92DF927B018C01689406C0CE
S1130E30DA2EEF010E942606FE01E894A591259181
S1130E40359145915591A6F3EF010E948304FE016B
S1130E509701A801DA9469F7DF90EF90FF900F9162
S1130E601F91CF91DF91089597FB072E16F40094FC
S1130E7007D077FD09D00E944E0707FC05D03EF449
S1130E80909581959F4F0895709561957F4F089532
S1130E90EE0FFF1F0590F491E02D0994AA1BBB1BD4
S1130EA051E107C0AA1FBB1FA617B70710F0A61B66
S1130EB0B70B881F991F5A95A9F780959095BC0187
S1130EC0CD010895662777270C948C07FC018827A9
S1130ED09927E89421912032E9F3293010F02E303B
S1130EE0C8F32B3241F02D3239F4689404C00E94C7
S1130EF08407820F911D219120532A30C0F31EF4E0
S1130F00909581959F4F08957AE0979F902D879FA4
S1130F10802D910D11240895A0E0B0E0E2E9F7E0FE
S1130F200C941409EC016B016115710519F0FB01B6
S1130F30918380837E01FFEFEF1AFF0A0881802FDF
S1130F4090E00E94DA08892B11F0E701F3CF0D320B
S1130F5039F47E0182E0E80EF11C098111E008C039
S1130F600B3229F47E0192E0E90EF11C098110E0B4
S1130F70E701219743E050E06AE970E0CE010E9466
S1130F80E308892BC1F4239645E050E065E970E05D
S1130F90CE010E94E308892B09F42596C114D104DB
S1130FA019F0F601D183C0831111F6C060E070E03E
S1130FB080E89FE7FAC043E050E062E970E0CE01C8
S1130FC00E94E308892B59F4C114D10409F4E9C03F
S1130FD0F2E0EF0EF11CF601F182E082E2C020E0C3
S1130FE030E0A901C0E0D0E0F70180EDA82EA00E0A
S1130FF089E08A1530F1912F9260B92E812F887083
S113100012FF04C0811124C0219622C081112197AE
S1131010A5E0B0E00E940309DC01CB01880F991F11
S1131020AA1FBB1F9C01AD012A0D311D411D511D7D
S1131030283989E93807480789E1580748F01660D4
S113104006C09EEFA9120AC013FD40C01860B12E5D
S11310508FEFE81AF80A00811B2DC6CF802F8F7DF1
S11310608534A1F580818D3211F4106106C08B3274
S113107021F0319661E070E004C08181329662E033
S113108070E080538A3018F0E61BF70B1FC060E055
S113109070E060389CE079075CF4DB01AA0FBB1FA9
S11310A0AA0FBB1F6A0F7B1F660F771F680F711D86
S11310B03196DF0111978C9180538A3050F314FFDD
S11310C003C0719561957109C60FD71F11FF08C040
S11310D0C114D10429F0CF010197F60191838083D3
S11310E0CA01B9010E948005212F2370233019F011
S11310F04B015C0106C04B015C01B7FAB094B7F830
S1131100B09420E030E0A901C501B4010E94FB08BD
S1131110882309F43EC0D7FF06C0D195C195D109F3
S113112001EB10E002C009EC10E06801F8E1CF1A0D
S1131130D10890E2E92EF12CCE15DF0574F0F80108
S11311402591359145915491C501B4010E9413062E
S11311504B015C01CE19DF09EFCF04501109F5945E
S1131160E7940C151D0541F78A2D880F8B2D881FD8
S11311708F3F49F020E030E0A901C501B4010E948D
S1131180FB08811106C082E290E09093590180939C
S11311905801C501B40109C060E070E080E89FEF28
S11311A004C060E070E080EC9FE7CDB7DEB7ECE010
S11311B00C94300991110C940009803219F0895073
S11311C08550C8F70895FB01DC014150504088F078
S11311D08D9181341CF08B350CF4805E6591613403
S11311E01CF06B350CF4605E861B611171F3990B76
S11311F00895881BFCCF0E94880608F481E00895B6
S11312009927882708950E944509A59F900DB49FAA
S1131210900DA49F800D911D112408952F923F924B
S11312204F925F926F927F928F929F92AF92BF92F2
S1131230CF92DF92EF92FF920F931F93CF93DF939E
S1131240CDB7DEB7CA1BDB0B0FB6F894DEBF0FBEFB
S1131250CDBF09942A88398848885F846E847D8448
S11312608C849B84AA84B984C884DF80EE80FD804A
S11312700C811B81AA81B981CE0FD11D0FB6F894C0
S1131280DEBF0FBECDBFED010895A29FB001B39F95
S1131290C001A39F700D811D1124911DB29F700D7B
S10F12A0811D1124911D0895F894FFCFC6
S11312AC64000000A04000000000000000000000EA
S11312BC0000000000803F0AD7A33CCDCCCC3DF607
S11312CC288C40F6288C4000000AD7A33C000080F0
S11312DC3F000020410000803F0AD7A33CCDCCCC7A
S11312EC3DF6288C40F6288C4000000AD7A33C001D
S11312FC00803F000020410000803F0AD7A33CCD72
S113130CCCCC3DF6288C40F6288C4000000AD7A3A0
S113131C3C0000803F000020410000803F0AD7A31E
S113132C3CCDCCCC3DF6288C40F6288C4000000AF1
S113133CD7A33C0000803F000020414F4B3B000AE8
S113134C0D0043483A00563B006D413B00573B00AF
S113135C456E61626C653B0044697361626C653B0C
S105136C00007B
S9030000FC
