:100000000C9497000C94B4000C94B4000C94B400BD
:100010000C94B4000C94B4000C94B4000C94B40090
:100020000C94B4000C94B4000C94B4000C94B40080
:100030000C94B4000C94B4000C94B4000C94B40070
:100040000C94B4000C94B4000C94B4000C94B40060
:100050000C94B4000C94B4000C94B4000C94B40050
:100060000C94B4000C9440010C94B4000C94B400B3
:100070000C94B4000C94B4000C94B4000C94B40030
:100080000C94B4000C94B4000C94B4000C94B40020
:100090000C94B4000C94B4000C94B4000C94B40010
:1000A0000C94B4000C94B4000C94B4000763423672
:1000B000B79BD8A71A39685618AEBAAB558C1D3CF9
:1000C000B7CC5763BD6DEDFD753EF6177231BF00BD
:1000D0000000803F08000000BE922449123EABAAF7
:1000E000AA2ABECDCCCC4C3E00000080BEABAAAA52
:1000F000AA3E00000000BF000000803F000000009A
:1001000000084178D3BB4387D1133D190E3CC3BDD2
:100110004282AD2B3E68EC8276BED98FE1A93E4C7F
:1001200080EFFFBE01C4FF7F3F00000000001124EC
:100130001FBECFEFDAE0DEBFCDBF14E0A0E0B1E03C
:10014000E2EBF1E102C005900D92A637B107D9F7B5
:1001500025E0A6E7B4E001C01D92A73AB207E1F797
:100160000E9434010C94D7080C94000087E8809317
:100170007A0080E480937C00089580917A00806406
:1001800080937A0080917A0086FDFCCF60917800A0
:100190008091790070E0782B072E000C880B990B6A
:1001A0000E94080620E030E040E85AE30E949906E9
:1001B00020E030E040EA50E40E9499060895ECEB1C
:1001C000F0E080818064808380818068808380818A
:1001D000846080838081816080831092B90088E18F
:1001E0008093B800089594EA9093BC009091BC006D
:1001F00097FFFCCF9091B900987F983021F0903113
:1002000011F081E008958093BB0084E88093BC00E6
:100210008091BC0087FFFCCF8091B900887F883136
:1002200011F0803471F780E00895CF93DF93C1E03F
:10023000D0E08C2F0E94F3008091B900883169F4DE
:100240008CEE92E00E94A50463E070E0CE010E9473
:10025000BD0489E693E00E94A5042196C038D1052B
:1002600041F7DF91CF910895559A5D980E94C5019D
:100270000E94A6010E94B30178940E94A401FDCFC0
:100280001F920F920FB60F9211242F933F934F930B
:100290005F936F937F938F939F93AF93BF93EF93EE
:1002A000FF935D9A80917604909177048830910550
:1002B0005CF42091CE00FC01EE57FB4F20830196A9
:1002C00090937704809376048091760490917704DC
:1002D0008830910534F4FC01EF57FB4F80818F3259
:1002E00031F40E94AA031092770410927604FF91D1
:1002F000EF91BF91AF919F918F917F916F915F919E
:100300004F913F912F910F900FBE0F901F90189516
:10031000611102C0479A03C0613039F4479883ECF9
:1003200099E00197F1F700C00000469889EF90E04E
:100330000197F1F700C00000469A89EF90E001971D
:10034000F1F700C0000008950C945B04089510922A
:10035000D7001092D8001092E2000895BC0188E8FE
:1003600091E00C94930483E193E00E94AE0181E359
:1003700093E00E94A5040E9415018BE493E00E9483
:10038000AE0188E891E00C946A040E94A7010E94E3
:10039000B1048CE693E00E94AE010E94B60081E8B1
:1003A00093E00E94AE010E94DF0085E993E00E9485
:1003B000AE0188E891E00C946A040F931F93CF93E9
:1003C000DF9320E030E048EC52E40E9499060E945E
:1003D000D005FB0124E630E04AE0CF01B9010E94DC
:1003E000AF08623071053CF0C901489F9001499FF8
:1003F000300D1124F2CFC0E0D0E04EE20AE010E070
:10040000DE01AA56BB4F1E161F060CF52A30310519
:1004100011F44C932196CF01B9010E94AF0880E3FB
:10042000860FDE01AA56BB4F8C9390E0C097829F47
:10043000B001839F700D929F700D1124E61BF70B86
:100440002196C901B8010E94AF089B01D9CF1C9227
:1004500086E994E0DF91CF911F910F9108954F921B
:100460005F926F927F928F929F92AF92BF92EF9224
:10047000FF920F931F93CF93DF937C01FC01319682
:1004800000E010E081918E3219F00F5F1F4FFACF1C
:10049000C1E0D0E0412C512C3201C80105968C17E7
:1004A0009D07ACF101501109F701EC0FFD1F808190
:1004B0008E3209F42196B801012E000C880B990B9D
:1004C0000E9408069B01AC0160E070E080E291E4CC
:1004D0000E9406074B015C01F701EC0FFD1F6081D4
:1004E00070E060537109072E000C880B990B0E9475
:1004F0000806A50194010E9499069B01AC01C30165
:10050000B2010E94F2042B013C012196C6CFC30127
:10051000B201DF91CF911F910F91FF90EF90BF90AB
:10052000AF909F908F907F906F905F904F900895C5
:10053000CF92DF92EF92FF920F931F93CF93809110
:100540008E048111FFC080918F048A3709F0FAC0B0
:100550000091910410E0C8010E942F020E94D7056B
:1005600082E2689FF0011124E050FF4F85898111DC
:10057000C1C080919004833609F03FC0C0908A04C6
:10058000D0908B04E0908C04F0908D04C082D182D6
:10059000E282F382C8010E942F020E94D705862FB3
:1005A000B701A6010E944C048DEB93E00E94AE01BE
:1005B0008091910490E00E94AE0183EE93E00E944E
:1005C000AE0160918A0470918B0480918C049091AB
:1005D0008D040E94DD010E94AE0182EE93E00E9434
:1005E000AE0188E891E00E946A0410928A04109299
:1005F0008B0410928C0410928D04809190048637A5
:1006000009F078C00091910410E0C8010E942F0207
:10061000C0908A04D0908B04E0908C04F0908D04FC
:100620000E94D705C2E2C69FF0011124E050FF4F9F
:10063000C28ED38EE48EF58EC8010E942F020E94D6
:10064000D705862FB701A6010E94FE0386EE93E030
:100650000E94AE018091910490E00E94AE0188EF6B
:1006600093E00E94AE018BE094E00E94AE01809185
:10067000910490E00E94AE0188E494E00E94AE01F3
:100680008091910490E00E942F020E94D705862F4E
:100690000E94E2030E94DD010E94AE018AE194E023
:1006A0000E94AE018CE194E00E94AE018091910421
:1006B00090E00E942F020E94D705C69FF0011124EE
:1006C000E050FF4F60817181828193810E94DD0142
:1006D0000E94AE0183E394E00E94AE0188E891E0BD
:1006E0000E946A0410928A0410928B0410928C0467
:1006F00010928D048091910490E00E942F020E943C
:10070000D70582E2689FF0011124E050FF4F8589F0
:100710008130C1F4809190048637A1F480918A04DD
:1007200090918B04A0918C04B0918D048483958367
:10073000A683B78310928A0410928B0410928C04C3
:1007400010928D04CF911F910F91FF90EF90DF9049
:10075000CF90089580918204833279F08A3219F51E
:1007600081E080937904A3E8B4E0EEE8F4E08D91B1
:100770008F32C9F081931082FACF81E080937804A0
:1007800082E894E00E942F0260938A0470938B04A5
:1007900080938C0490938D04E2E8F4E080818823B8
:1007A00031F01192FBCF80917804813051F4809127
:1007B0007904813031F410927804109279040C9409
:1007C00098020895CF93DF93C82FD0E0CE01880F11
:1007D000991F01970E94BD00219722E22C9FF001F2
:1007E0002D9FF00D1124E050FF4F2485358546855F
:1007F00057850E949906DF91CF9108951F93CF935B
:10080000DF93182F90E0019722E2289FE001299FB3
:10081000D00D1124C050DF4F4A8F5B8F6C8F7D8FBE
:10082000812F0E94E2032A8D3B8D4C8D5D8D0E94AD
:1008300094066A961816B4F4812F0E94E203288168
:1008400039814A815B810E94F1042DEC3CEC4CEC37
:100850005DE30E9494061816DCF460E0812F0E948C
:100860008801EACF812F0E94E203288139814A81E1
:100870005B810E94F1042DEC3CEC4CEC5DE30E94AA
:10088000940618162CF461E0812F0E948801EACFAB
:10089000DF91CF911F91089590E0019722E2289F68
:1008A000F001299FF00D1124E050FF4F4083518348
:1008B00062837383089583E694E00E94AE0188E822
:1008C00091E00C946A049091C80095FFFCCF80934E
:1008D000CE000895CF93DF93EC018B819A81981716
:1008E00051F08F5F8B83E881F981E80FF11D8081E2
:1008F0000E946304F2CFDF91CF910895FC018281C1
:100900008F5F9381891306C0CF010E946A0481E042
:1009100090E00895A081B181A80FB11D6C938283EE
:1009200080E090E008950F931F93CF93DF938C01A5
:10093000EB016991662321F0C8010E947E04F9CF82
:10094000DF91CF911F910F910895CF93DF93EC0129
:100950008991882319F00E946304FACFDF91CF9127
:1009600008951092CD0089E18093CC0088E98093AE
:10097000C90086E08093CA0008950F931F93CF9318
:10098000DF93EC018B01853691051CF46330710512
:100990004CF0CE0164E670E00E94AF0880E3860F61
:1009A0000E946304CB30D1051CF4023011056CF0B9
:1009B000CE0164E670E00E94AF086AE070E00E9439
:1009C000AF0880E3860F0E946304CE016AE070E006
:1009D0000E94AF08805DDF91CF911F910F910C9421
:1009E00063045058BB27AA270E9409050C945A0695
:1009F0000E944C0638F00E94530620F039F49F3FC5
:100A000019F426F40C9449060EF4E095E7FB0C94D7
:100A10004306E92F0E946B0658F3BA176207730763
:100A20008407950720F079F4A6F50C948D060EF452
:100A3000E0950B2EBA2FA02D0B01B90190010C01EE
:100A4000CA01A0011124FF27591B99F0593F50F406
:100A5000503E68F11A16F040A22F232F342F44275E
:100A6000585FF3CF469537952795A795F040539556
:100A7000C9F77EF41F16BA0B620B730B840BBAF026
:100A80009150A1F0FF0FBB1F661F771F881FC2F791
:100A90000EC0BA0F621F731F841F48F487957795A5
:100AA0006795B795F7959E3F08F0B0CF9395880F5F
:100AB00008F09927EE0F9795879508950E94720583
:100AC0000C945A060E94530658F00E944C0640F0BF
:100AD00029F45F3F29F00C94430651110C948E06C3
:100AE0000C9449060E946B0668F39923B1F35523D1
:100AF00091F3951B550BBB27AA2762177307840731
:100B000038F09F5F5F4F220F331F441FAA1FA9F3C6
:100B100035D00E2E3AF0E0E832D091505040E695B4
:100B2000001CCAF72BD0FE2F29D0660F771F881F15
:100B3000BB1F261737074807AB07B0E809F0BB0B08
:100B4000802DBF01FF2793585F4F3AF09E3F51051C
:100B500078F00C9443060C948E065F3FE4F3983EC5
:100B6000D4F3869577956795B795F7959F5FC9F705
:100B7000880F911D9695879597F90895E1E0660F86
:100B8000771F881FBB1F621773078407BA0720F0FF
:100B9000621B730B840BBA0BEE1F88F7E095089568
:100BA0000E94D7056894B1110C948E0608950E9496
:100BB000730688F09F5798F0B92F9927B751B0F076
:100BC000E1F0660F771F881F991F1AF0BA95C9F7D1
:100BD00014C0B13091F00E948D06B1E008950C94DC
:100BE0008D06672F782F8827B85F39F0B93FCCF38F
:100BF000869577956795B395D9F73EF4909580954E
:100C0000709561957F4F8F4F9F4F0895E89409C06D
:100C100097FB3EF490958095709561957F4F8F4F2F
:100C20009F4F9923A9F0F92F96E9BB279395F69545
:100C3000879577956795B795F111F8CFFAF4BB0FC3
:100C400011F460FF1BC06F5F7F4F8F4F9F4F16C027
:100C5000882311F096E911C0772321F09EE8872FB1
:100C6000762F05C0662371F096E8862F70E060E06D
:100C70002AF09A95660F771F881FDAF7880F9695E6
:100C8000879597F9089597F99F6780E870E060E08D
:100C900008959FEF80EC089500240A941616170615
:100CA00018060906089500240A941216130614065D
:100CB00005060895092E0394000C11F4882352F0C0
:100CC000BB0F40F4BF2B11F460FF04C06F5F7F4F78
:100CD0008F4F9F4F089557FD9058440F551F59F05F
:100CE0005F3F71F04795880F97FB991F61F09F3F19
:100CF00079F087950895121613061406551FF2CF42
:100D00004695F1DF08C0161617061806991FF1CF91
:100D100086957105610508940895E894BB276627B8
:100D20007727CB0197F908950E94900708F48FEF79
:100D300008950E94AC060C945A060E944C0638F0A6
:100D40000E94530620F0952311F00C9443060C9456
:100D5000490611240C948E060E946B0670F3959F31
:100D6000C1F3950F50E0551F629FF001729FBB27A2
:100D7000F00DB11D639FAA27F00DB11DAA1F649F3E
:100D80006627B00DA11D661F829F2227B00DA11DF1
:100D9000621F739FB00DA11D621F839FA00D611D77
:100DA000221F749F3327A00D611D231F849F600D98
:100DB000211D822F762F6A2F11249F5750409AF0C1
:100DC000F1F088234AF0EE0FFF1FBB1F661F771F4D
:100DD000881F91505040A9F79E3F510580F00C9418
:100DE00043060C948E065F3FE4F3983ED4F3869559
:100DF00077956795B795F795E7959F5FC1F7FE2BB8
:100E0000880F911D9695879597F90895FA01EE0F31
:100E1000FF1F309621053105A1F16115710561F4BF
:100E20008038BFE39B0749F168949038810561F0F1
:100E30008038BFEF9B0741F099234AF5FF3FE1055A
:100E40003105210519F1E8940894E795D901AA2301
:100E500029F4AB2FBE2FF85FD0F310C0FF5F70F402
:100E6000A695E0F7F73950F019F0FF3A38F49F777C
:100E70009F930DD00F9007FC9058089546F00C9466
:100E8000490660E070E080E89FE308954FE79F77B0
:100E90005F934F933F932F930E9425082F913F918B
:100EA0004F915F910E9499060C945E0729F416F009
:100EB0000C9443060C948D060C9449060E9473060C
:100EC000A8F39638A0F707F80F92E8942BE33AEAD4
:100ED00048EB5FE70E94AF060F920F920F924DB75B
:100EE0005EB70F920E946D08ECEAF0E00E94B40732
:100EF0004F915F91EF91FF91E595EE1FFF1F49F034
:100F0000FE57E0684427EE0F441FFA95E1F741953C
:100F1000550B0E94E7070F9007FE0C94DB0708951E
:100F2000990F0008550FAA0BE0E8FEEF16161706FA
:100F3000E807F907C0F012161306E407F50798F062
:100F4000621B730B840B950B39F40A2661F0232B7B
:100F5000242B252B21F408950A2609F4A140A695F7
:100F60008FEF811D811D0895DF93CF931F930F9302
:100F7000FF92EF92DF927B018C01689406C0DA2E1B
:100F8000EF010E94AC06FE01E894A59125913591F0
:100F900045915591A6F3EF010E940905FE019701C5
:100FA000A801DA9469F7DF90EF90FF900F911F91FD
:100FB000CF91DF9108959B01AC0160E070E080E883
:100FC0009FE30C945E050C9443060C94A1080E94C8
:100FD0007306D8F39923C9F3940F511DA3F39150CD
:100FE000504094F059F0882332F0660F771F881F25
:100FF00091505040C1F79E3F51052CF7880F911D2D
:101000009695879597F908955F3FACF0983E9CF0D0
:10101000BB27869577956795B79508F4B16093954A
:10102000C1F7BB0F58F711F460FFE8CF6F5F7F4F38
:101030008F4F9F4FE3CF0C948E0616F00C94A108AF
:101040000C94490668940C9443060E947306A8F316
:101050009923C1F3AEF3DF93CF931F930F93FF92C6
:10106000C92FDD2788232AF02197660F771F881F55
:10107000DAF720E030E040E85FEB9FE3883920F0CA
:10108000803E38F021968F770E94F204E4EDF0E084
:1010900004C00E94F204E1E0F1E00E94B4078B0179
:1010A000BE01EC01FB2E6F5771097595771F880BF8
:1010B000990B0E94080628E132E741E35FE30E94B2
:1010C000AC06AF2D9801AE01FF900F911F91CF910B
:1010D000DF910E9409050C945A06FA01DC01AA0F5F
:1010E000BB1F9B01AC01BF5728F42227332744279D
:1010F000507820C0B75190F4AB2F00244695379517
:101100002795011CA395D2F3002071F0220F331F05
:10111000441FB395DAF30ED00C94F10461307105DD
:10112000A0E88A07B94630F49B01AC01662777270F
:1011300088279078309621F020833183428353832F
:1011400008959F3F31F0915020F4879577956795EA
:10115000B795880F911D9695879597F9089597FBF8
:10116000072E16F4009407D077FD09D00E94C3081B
:1011700007FC05D03EF4909581959F4F089570959A
:1011800061957F4F0895AA1BBB1B51E107C0AA1FA1
:10119000BB1FA617B70710F0A61BB70B881F991F18
:1011A0005A95A9F780959095BC01CD010895F894C2
:0211B000FFCF6F
:1011B2000000803F0AD7A33CCDCCCC3DF6288C4022
:1011C200F6288C4000000AD7A33C0000803F0000B4
:1011D20020410000803F0AD7A33CCDCCCC3DF6286D
:1011E2008C40F6288C4000000AD7A33C0000803FC8
:1011F200000020410000803F0AD7A33CCDCCCC3D6B
:10120200F6288C40F6288C4000000AD7A33C000048
:10121200803F000020410000803F0AD7A33CCDCC94
:10122200CC3DF6288C40F6288C4000000AD7A33C1F
:101232000000803F00002041A704000041205354D9
:1012420041525420636F6E646974696F6E206861E5
:1012520073206265656E20207472616E736D6974AD
:101262007465640A0D00412072657065617465647D
:1012720020535441525420636F6E646974696F6ED7
:10128200686173206265656E207472616E736D6948
:10129200747465640A0D00534C412B5720686173C6
:1012A200206265656E207472616E736D6974746517
:1012B200642041434B20686173206265656E207231
:1012C200656365697665640A0D00534C412B5720AE
:1012D200686173206265656E207472616E736D69F8
:1012E20074746564204E4F542041434B20686173EF
:1012F200206265656E2072656365697665640A0DB4
:1013020000446174612062797465206861732062AF
:1013120065656E207472616E736D69747465643B89
:1013220041434B20686173206265656E207265637C
:1013320065697665640A0D0044617461206279749E
:101342006520686173206265656E207472616E73D8
:101352006D6974746564204E4F542041434B20687C
:101362006173206265656E20726563656976656486
:101372000A0D004172626974726174696F6E206C49
:101382006F737420696E20534C412B57206F726427
:101392006174612062797465730A0D000A0D4F64ED
:1013A2006E616C657A696F6E6F2075727A61647AAC
:1013B200656E696520706F64204164726573656D46
:1013C200203D00446961676E6F73746963206465D0
:1013D2007669636573206F6E205043422E2E0A0D8C
:1013E200000A0D74657374206D61676973747261AC
:1013F2006C69204932432E2E2E2E000A0D416C6C50
:10140200206465766963657320776F726B207072F2
:101412006F7065726C79210A0A0A0D0055415254A7
:1014220020696E697469616C697A652E2E2E0A0DC7
:101432000041444320696E697469616C697A652E62
:101442002E2E0A0D004D6963726F6B6F6E74726F90
:101452006C657220696E697469616C697A65642071
:10146200636F72726563746C79210A0D005573742F
:101472006177696F6E6F206F6772616E69637A65FB
:101482006E69652070723F646F7765206E612043DC
:101492004800412F7400547279622070726163793E
:1014A20020646C6120434800095A726F646C6F209B
:1014B2006E617069656369610A0D006E6170693FF2
:1014C200636965206E61204348005600094F6772C8
:1014D200616E69637A656E696520707261646F77A7
:1014E200653A004100094F76657220437572726554
:1014F2006E7420666C616721090009410A0D0009BA
:101502004F76657220506F77657220666C61672135
:101512000A0D00506F77657220737570706C793A9E
:061522002F6E2F72000085
:00000001FF
