S0110000706C6174666F726D612E737265634D
S11300000C9497000C94B4000C94B4000C94B400B9
S11300100C94B4000C94B4000C94B4000C94B4008C
S11300200C94B4000C94B4000C94B4000C94B4007C
S11300300C94B4000C94B4000C94B4000C94B4006C
S11300400C94B4000C94B4000C94B4000C94B4005C
S11300500C94B4000C94B4000C94B4000C94B4004C
S11300600C94B4000C9407020C94B4000C94B400E7
S11300700C94B4000C94B4000C94B4000C94B4002C
S11300800C94B4000C94B4000C94B4000C94B4001C
S11300900C94B4000C94B4000C94B4000C94B4000C
S11300A00C94B4000C94B4000C94B400076342366E
S11300B0B79BD8A71A39685618AEBAAB558C1D3CF5
S11300C0B7CC5763BD6DEDFD753EF6177231BF00B9
S11300D00000803F08000000BE922449123EABAAF3
S11300E0AA2ABECDCCCC4C3E00000080BEABAAAA4E
S11300F0AA3E00000000BF000000803F0000000096
S113010000084178D3BB4387D1133D190E3CC3BDCE
S11301104282AD2B3E68EC8276BED98FE1A93E4C7B
S113012080EFFFBE01C4FF7F3F00000000001124E8
S11301301FBECFEFDAE0DEBFCDBF14E0A0E0B1E038
S1130140E4EEF1E102C005900D92A637B107D9F7AC
S113015025E0A6E7B4E001C01D92AF39B207E1F78C
S11301600E94FB010C94F0080C94000087E8809333
S11301707A0080E480937C00089590917A009064E2
S113018090937A0090917A0096FDFCCF21E030E0C4
S1130190A90102C0440F551F8A95E2F740937C00E1
S11301A0609178008091790070E0782B072E000C24
S11301B0880B990B0E94210620E030E040E85AE3C6
S11301C00E94B20620E030E040EA50E40E94B20609
S11301D008950F931F93CF93DF9320E030E048EC12
S11301E052E40E94B2060E94E905FB0124E630E0D5
S11301F04AE0CF01B9010E94C808623071053CF0A1
S1130200C901489F9001499F300D1124F2CFC0E0ED
S1130210D0E04EE20AE010E0DE01A758BB4F1E1604
S11302201F060CF52A30310511F44C932196CF01A9
S1130230B9010E94C80880E3860FDE01A758BB4FAE
S11302408C9390E0C097829FB001839F700D929F22
S1130250700D1124E61BF70B2196C901B8010E9409
S1130260C8089B01D9CF1C9289E794E0DF91CF9114
S11302701F910F9108954F925F926F927F928F9288
S11302809F92AF92BF92EF92FF920F931F93CF93DF
S1130290DF937C01FC01319600E010E081918E3205
S11302A019F00F5F1F4FFACFC1E0D0E0812C912CE1
S11302B05401C80105968C179D07BCF10150110922
S11302C0F701EC0FFD1F80818E3209F42196F701AE
S11302D0EC0FFD1F608170E060537109072E000C64
S11302E0880B990B0E9421062B013C01B801012EB9
S11302F0000C880B990B0E9421069B01AC0160E065
S113030070E080E291E40E941F079B01AC01C301ED
S1130310B2010E94B2069B01AC01C501B4010E9466
S11303200B054B015C012196C4CFC501B401DF91DB
S1130330CF911F910F91FF90EF90BF90AF909F903E
S11303408F907F906F905F904F900895ECEBF0E06A
S113035080818064808380818068808380818460E0
S113036080838081816080831092B90088E18093CA
S1130370B800089594EA9093BC009091BC0097FF54
S1130380FCCF9091B900987F983021F0903111F012
S113039081E008958093BB0084E88093BC00809141
S11303A0BC0087FFFCCF8091B900887F883111F0B1
S11303B0803471F780E00895CF93DF93C1E0D0E0FB
S11303C08C2F0E94BA018091B900883169F48CEEB7
S11303D092E00E94BE0463E070E0CE010E94D60465
S11303E089E693E00E94BE042196C038D10541F706
S11303F0DF91CF910895559A5D980E9483020E94DF
S113040064020E94710278940E946202FDCF1F92DE
S11304100F920FB60F9211242F933F934F935F9334
S11304206F937F938F939F93AF93BF93EF93FF93B8
S11304305D9A80917604883050F49091CE00E82F34
S1130440F0E0E557FB4F90838F5F80937604E09153
S11304507604E83030F4F0E0E657FB4F80818F32C9
S113046021F40E94C30310927604FF91EF91BF918F
S1130470AF919F918F917F916F915F914F913F9138
S11304802F910F900FBE0F901F901895611102C00D
S1130490479A03C0613039F4479883EC99E0019797
S11304A0F1F700C00000469889EF90E00197F1F75A
S11304B000C00000469A89EF90E00197F1F700C070
S11304C0000008950C94740408951092D7001092BB
S11304D0D8001092E2000895BC0188E891E00C94E1
S11304E0AC0483E193E00E946C0281E393E00E94F8
S11304F0BE040E94DC018BE493E00E946C0288E855
S113050091E00C9483040E9465020E94CA048CE664
S113051093E00E946C020E94B60081E893E00E947E
S11305206C020E94A60185E993E00E946C0288E8AF
S113053091E00C948304CF92DF92EF92FF92CF93D9
S113054080919704811119C1809198048A3709F028
S113055014C180919A0490E00E943B010E94F0052E
S1130560C2E2C69FF0011124E050FF4F858981113A
S1130570D0C080919904833609F04DC080919A04CB
S113058090E00E943B01C0909304D0909404E090CA
S11305909504F09096040E94F005C69FF001112482
S11305A0E050FF4FC082D182E282F38280919A04AC
S11305B090E00E943B010E94F005862FB701A6013E
S11305C00E9465048DEB93E00E946C0280919A0472
S11305D090E00E946C0283EE93E00E946C026091B2
S11305E093047091940480919504909196040E94D0
S11305F0E9000E946C0282EE93E00E946C0288E89B
S113060091E00E9483041092930410929404109237
S113061095041092960480919904863709F079C064
S113062080919A0490E00E943B01C0909304D09082
S11306309404E0909504F09096040E94F005C2E2C0
S1130640C69FF0011124E050FF4FC28ED38EE48E7A
S1130650F58E80919A0490E00E943B010E94F0057F
S1130660862FB701A6010E94170486EE93E00E942C
S11306706C0280919A0490E00E946C0288EF93E0EF
S11306800E946C028BE094E00E946C0280919A04B8
S113069090E00E946C0288E494E00E946C028091D5
S11306A09A0490E00E943B010E94F005862F0E946C
S11306B0FB030E94E9000E946C028AE194E00E941C
S11306C06C028CE194E00E946C0280919A0490E0A8
S11306D00E943B010E94F005C69FF0011124E050E6
S11306E0FF4F60817181828193810E94E9000E94A1
S11306F06C0283E394E00E946C0288E891E00E941B
S1130700830410929304109294041092950410920E
S1130710960480919A0490E00E943B010E94F005A7
S1130720C2E2C69FF0011124E050FF4F8589813059
S113073021F580919904863701F580919A0490E01F
S11307400E943B010E94F005C69FF0011124E05075
S1130750FF4F8091930490919404A0919504B091DB
S1130760960484839583A683B7831092930410928E
S113077094041092950410929604CF91FF90EF90F8
S1130780DF90CF90089580918B04833279F08A3280
S113079019F581E080937804ACE8B4E0E7E9F4E08B
S11307A08D918F32C9F081931082FACF81E08093CA
S11307B078048BE894E00E943B0160939304709367
S11307C094048093950490939604EBE8F4E080817C
S11307D0882311F01192FBCF80917704813051F47A
S11307E080917804813031F4109277041092780467
S11307F00C949B020895CF93DF93C82FD0E0CE01D1
S1130800880F991F01970E94BD00219722E22C9F17
S1130810F0012D9FF00D1124E050FF4F2485358504
S1130820468557850E94B206DF91CF9108951F93A4
S1130830CF93DF93182F90E0019722E2289FE001E5
S1130840299FD00D1124C050DF4F4A8F5B8F6C8FCE
S11308507D8F812F0E94FB032A8D3B8D4C8D5D8DF6
S11308600E94AD066A961816B4F4812F0E94FB0309
S1130870288139814A815B810E940A052DEC3CEC78
S11308804CEC5DE30E94AD061816DCF460E0812FA9
S11308900E944602EACF812F0E94FB0328813981FE
S11308A04A815B810E940A052DEC3CEC4CEC5DE333
S11308B00E94AD0618162CF461E0812F0E944602B6
S11308C0EACFDF91CF911F91089590E0019722E242
S11308D0289FF001299FF00D1124E050FF4F408321
S11308E0518362837383089583E694E00E946C02CB
S11308F088E891E00C9483049091C80095FFFCCFA4
S11309008093CE000895CF93DF93EC018B819A817D
S1130910981751F08F5F8B83E881F981E80FF11DFF
S113092080810E947C04F2CFDF91CF910895FC0175
S113093082818F5F9381891306C0CF010E94830453
S113094081E090E00895A081B181A80FB11D6C935E
S1130950828380E090E008950F931F93CF93DF93F9
S11309608C01EB016991662321F0C8010E94970470
S1130970F9CFDF91CF911F910F910895CF93DF931A
S1130980EC018991882319F00E947C04FACFDF914D
S1130990CF9108951092CD0089E18093CC0088E92D
S11309A08093C90086E08093CA0008950F931F9333
S11309B0CF93DF93EC018B01853691051CF46330F2
S11309C071054CF0CE0164E670E00E94C80880E333
S11309D0860F0E947C04CB30D1051CF40230110533
S11309E06CF0CE0164E670E00E94C8086AE070E032
S11309F00E94C80880E3860F0E947C04CE016AE04E
S1130A0070E00E94C808805DDF91CF911F910F9123
S1130A100C947C045058BB27AA270E9422050C94EE
S1130A2073060E94650638F00E946C0620F039F4C3
S1130A309F3F19F426F40C9462060EF4E095E7FB4C
S1130A400C945C06E92F0E94840658F3BA176207D7
S1130A5073078407950720F079F4A6F50C94A6068D
S1130A600EF4E0950B2EBA2FA02D0B01B9019001C5
S1130A700C01CA01A0011124FF27591B99F0593F09
S1130A8050F4503E68F11A16F040A22F232F342F51
S1130A904427585FF3CF469537952795A795F0409F
S1130AA05395C9F77EF41F16BA0B620B730B840BB4
S1130AB0BAF09150A1F0FF0FBB1F661F771F881F6C
S1130AC0C2F70EC0BA0F621F731F841F48F48795C4
S1130AD077956795B795F7959E3F08F0B0CF9395B6
S1130AE0880F08F09927EE0F9795879508950E942F
S1130AF08B050C9473060E946C0658F00E946506E0
S1130B0040F029F45F3F29F00C945C0651110C94D9
S1130B10A7060C9462060E94840668F39923B1F335
S1130B20552391F3951B550BBB27AA27621773070F
S1130B30840738F09F5F5F4F220F331F441FAA1FA3
S1130B40A9F335D00E2E3AF0E0E832D0915050405F
S1130B50E695001CCAF72BD0FE2F29D0660F771F0D
S1130B60881FBB1F261737074807AB07B0E809F0F3
S1130B70BB0B802DBF01FF2793585F4F3AF09E3F78
S1130B80510578F00C945C060C94A7065F3FE4F3DF
S1130B90983ED4F3869577956795B795F7959F5FBB
S1130BA0C9F7880F911D9695879597F90895E1E007
S1130BB0660F771F881FBB1F621773078407BA0766
S1130BC020F0621B730B840BBA0BEE1F88F7E095C1
S1130BD008950E94F0056894B1110C94A706089535
S1130BE00E948C0688F09F5798F0B92F9927B75127
S1130BF0B0F0E1F0660F771F881F991F1AF0BA95BD
S1130C00C9F714C0B13091F00E94A606B1E008956E
S1130C100C94A606672F782F8827B85F39F0B93F60
S1130C20CCF3869577956795B395D9F73EF490956F
S1130C308095709561957F4F8F4F9F4F0895E894ED
S1130C4009C097FB3EF490958095709561957F4F10
S1130C508F4F9F4F9923A9F0F92F96E9BB279395BE
S1130C60F695879577956795B795F111F8CFFAF4CE
S1130C70BB0F11F460FF1BC06F5F7F4F8F4F9F4FFF
S1130C8016C0882311F096E911C0772321F09EE85D
S1130C90872F762F05C0662371F096E8862F70E0C3
S1130CA060E02AF09A95660F771F881FDAF7880F9D
S1130CB09695879597F9089597F99F6780E870E06E
S1130CC060E008959FEF80EC089500240A941616BE
S1130CD0170618060906089500240A941216130626
S1130CE0140605060895092E0394000C11F48823B4
S1130CF052F0BB0F40F4BF2B11F460FF04C06F5FD0
S1130D007F4F8F4F9F4F089557FD9058440F551FA5
S1130D1059F05F3F71F04795880F97FB991F61F079
S1130D209F3F79F087950895121613061406551FF0
S1130D30F2CF4695F1DF08C0161617061806991F5C
S1130D40F1CF86957105610508940895E894BB2751
S1130D5066277727CB0197F908950E94A90708F41D
S1130D608FEF08950E94C5060C9473060E946506D1
S1130D7038F00E946C0620F0952311F00C945C0668
S1130D800C94620611240C94A7060E94840670F346
S1130D90959FC1F3950F50E0551F629FF001729F1C
S1130DA0BB27F00DB11D639FAA27F00DB11DAA1F2B
S1130DB0649F6627B00DA11D661F829F2227B00D78
S1130DC0A11D621F739FB00DA11D621F839FA00D03
S1130DD0611D221F749F3327A00D611D231F849F53
S1130DE0600D211D822F762F6A2F11249F575040AA
S1130DF09AF0F1F088234AF0EE0FFF1FBB1F661F25
S1130E00771F881F91505040A9F79E3F510580F0ED
S1130E100C945C060C94A7065F3FE4F3983ED4F36D
S1130E20869577956795B795F795E7959F5FC1F791
S1130E30FE2B880F911D9695879597F90895FA01D1
S1130E40EE0FFF1F309621053105A1F161157105E3
S1130E5061F48038BFE39B0749F1689490388105B9
S1130E6061F08038BFEF9B0741F099234AF5FF3FBB
S1130E70E1053105210519F1E8940894E795D901B4
S1130E80AA2329F4AB2FBE2FF85FD0F310C0FF5F65
S1130E9070F4A695E0F7F73950F019F0FF3A38F4FA
S1130EA09F779F930DD00F9007FC9058089546F0BC
S1130EB00C94620660E070E080E89FE308954FE7D9
S1130EC09F775F934F933F932F930E943E082F91F8
S1130ED03F914F915F910E94B2060C94770729F4D9
S1130EE016F00C945C060C94A6060C9462060E9400
S1130EF08C06A8F39638A0F707F80F92E8942BE332
S1130F003AEA48EB5FE70E94C8060F920F920F92ED
S1130F104DB75EB70F920E948608ECEAF0E00E949B
S1130F20CD074F915F91EF91FF91E595EE1FFF1F64
S1130F3049F0FE57E0684427EE0F441FFA95E1F7A5
S1130F404195550B0E9400080F9007FE0C94F4077E
S1130F500895990F0008550FAA0BE0E8FEEF161646
S1130F601706E807F907C0F012161306E407F50799
S1130F7098F0621B730B840B950B39F40A2661F00D
S1130F80232B242B252B21F408950A2609F4A140B0
S1130F90A6958FEF811D811D0895DF93CF931F9335
S1130FA00F93FF92EF92DF927B018C01689406C04D
S1130FB0DA2EEF010E94C506FE01E894A591259161
S1130FC0359145915591A6F3EF010E942205FE014A
S1130FD09701A801DA9469F7DF90EF90FF900F91E1
S1130FE01F91CF91DF9108959B01AC0160E070E007
S1130FF080E89FE30C9477050C945C060C94BA0883
S11310000E948C06D8F39923C9F3940F511DA3F3BE
S11310109150504094F059F0882332F0660F771FB6
S1131020881F91505040C1F79E3F51052CF7880FFF
S1131030911D9695879597F908955F3FACF0983E7A
S11310409CF0BB27869577956795B79508F4B160B2
S11310509395C1F7BB0F58F711F460FFE8CF6F5FAA
S11310607F4F8F4F9F4FE3CF0C94A70616F00C943D
S1131070BA080C94620668940C945C060E948C0670
S1131080A8F39923C1F3AEF3DF93CF931F930F9388
S1131090FF92C92FDD2788232AF02197660F771F37
S11310A0881FDAF720E030E040E85FEB9FE38839FF
S11310B020F0803E38F021968F770E940B05E4EDF6
S11310C0F0E004C00E940B05E1E0F1E00E94CD07CE
S11310D08B01BE01EC01FB2E6F5771097595771FCB
S11310E0880B990B0E94210628E132E741E35FE374
S11310F00E94C506AF2D9801AE01FF900F911F917C
S1131100CF91DF910E9422050C947306FA01DC0151
S1131110AA0FBB1F9B01AC01BF5728F4222733271A
S11311204427507820C0B75190F4AB2F0024469543
S113113037952795011CA395D2F3002071F0220F57
S1131140331F441FB395DAF30ED00C940A056130B3
S11311507105A0E88A07B94630F49B01AC01662703
S1131160772788279078309621F020833183428333
S1131170538308959F3F31F0915020F487957795DC
S11311806795B795880F911D9695879597F908955A
S113119097FB072E16F4009407D077FD09D00E9420
S11311A0DC0807FC05D03EF4909581959F4F089587
S11311B0709561957F4F0895AA1BBB1B51E107C031
S11311C0AA1FBB1FA617B70710F0A61BB70B881FD3
S11311D0991F5A95A9F780959095BC01CD01089562
S10711E0F894FFCFAD
S11311E40000803F0AD7A33CCDCCCC3DF6288C40EC
S11311F4F6288C4000000AD7A33C0000803F00007E
S113120420410000803F0AD7A33CCDCCCC3DF62836
S11312148C40F6288C4000000AD7A33C0000803F91
S1131224000020410000803F0AD7A33CCDCCCC3D34
S1131234F6288C40F6288C4000000AD7A33C000012
S1131244803F000020410000803F0AD7A33CCDCC5E
S1131254CC3DF6288C40F6288C4000000AD7A33CE9
S11312640000803F000020419F04000041205354AB
S113127441525420636F6E646974696F6E206861AF
S113128473206265656E20207472616E736D697477
S11312947465640A0D004120726570656174656447
S11312A420535441525420636F6E646974696F6EA1
S11312B4686173206265656E207472616E736D6912
S11312C4747465640A0D00534C412B572068617390
S11312D4206265656E207472616E736D69747465E1
S11312E4642041434B20686173206265656E2072FB
S11312F4656365697665640A0D00534C412B572078
S1131304686173206265656E207472616E736D69C1
S113131474746564204E4F542041434B20686173B8
S1131324206265656E2072656365697665640A0D7D
S11313340044617461206279746520686173206279
S113134465656E207472616E736D69747465643B53
S113135441434B20686173206265656E2072656346
S113136465697665640A0D00446174612062797468
S11313746520686173206265656E207472616E73A2
S11313846D6974746564204E4F542041434B206846
S11313946173206265656E20726563656976656450
S11313A40A0D004172626974726174696F6E206C13
S11313B46F737420696E20534C412B57206F7264F1
S11313C46174612062797465730A0D000A0D4F64B7
S11313D46E616C657A696F6E6F2075727A61647A76
S11313E4656E696520706F64204164726573656D10
S11313F4203D00446961676E6F737469632064659A
S11314047669636573206F6E205043422E2E0A0D55
S1131414000A0D74657374206D6167697374726175
S11314246C69204932432E2E2E2E000A0D416C6C19
S1131434206465766963657320776F726B207072BC
S11314446F7065726C79210A0A0A0D005541525471
S113145420696E697469616C697A652E2E2E0A0D91
S11314640041444320696E697469616C697A652E2C
S11314742E2E0A0D004D6963726F6B6F6E74726F5A
S11314846C657220696E697469616C697A6564203B
S1131494636F72726563746C79210A0D00557374F9
S11314A46177696F6E6F206F6772616E69637A65C5
S11314B46E696520707261646F7765206E61204384
S11314C44800412F74005472796220707261637908
S11314D420646C6120434800095A726F646C6F2065
S11314E46E617069656369610A0D006E6170696596
S11314F4636965206E61204348005600094F677292
S1131504616E69637A656E696520707261646F7770
S1131514653A004100094F7665722043757272651D
S11315246E7420666C616721090009410A0D000983
S11315344F76657220506F77657220666C616721FF
S11315440A0D00506F77657220737570706C793A68
S10915542F6E2F7200004F
S9030000FC
